:020000040800F2
:1000000000280020F13F0008010600080306000850
:1000100005060008070600080906000800000000A1
:10002000000000000000000000000000A13D0008EA
:100030000B06000800000000413E0008853E000855
:1000400039400008394000083940000839400008AC
:10005000394000083940000839400008394000089C
:10006000394000083940000839400008394000088C
:10007000394000083940000839400008394000087C
:10008000394000083940000839400008394000086C
:10009000394000083940000839400008394000085C
:1000A000394000080D0600083940000839400008B2
:1000B00039400008394000080000000039400008BD
:1000C000394000080000000000000000394000082E
:1000D0000000000021060008394000080000000070
:1000E000394000083940000839400008000000008D
:1000F0000000000000000000000000000000000000
:0C01000000000000000000005FF808F1A3
:10011000034613F8012B002AFBD1181A0138704747
:1001200010B5054C237833B9044B13B10448AFF331
:1001300000800123237010BD10000020000000008B
:10014000B040000808B5034B1BB103490348AFF3A7
:10015000008008BD0000000014000020B04000082E
:1001600008B50268034B9A4200D008BD024B98477D
:10017000FBE700BF002C01408909000872B6FEE7CA
:1001800000B591B02822002106A8124B9847002301
:10019000019302930393049305930223069301238F
:1001A0000A9310230B9306A80B4B984768B90F23AB
:1001B00001930021029103910491059101A8074B3D
:1001C000984720B911B05DF804FB054B9847044BE4
:1001D000984700BFA1400008D90900084D0E00084B
:1001E0007D01000808B5084B9847084B9847084B15
:1001F0009847084B9847084B9847084B9847084B37
:100200009847084B9847FEE7590900088101000804
:1002100015140008B1140008A9020008D938000814
:100220008D1400081D39000838B50D4660F07F01B7
:10023000C9B20020074B9847002404E0295D012043
:10024000044B984701342846034B9847A042F5D801
:1002500038BD00BFD90500081101000808B5C82045
:100260000A4B984743200A4CA0470A480A4B984734
:100270000D20A04709490020094CA047094D2946F7
:100280004020A04729461020A047E8E7F92D0008A4
:1002900071040008C8400008A5040008D440000804
:1002A00029020008DC40000810B582B0074B9847CF
:1002B000074B9847002301930222009264220549CC
:1002C0000548064CA04702B010BD00BFD903000886
:1002D00099050008E04000085D020008892A00082E
:1002E00000B583B001220DF107010448044B984783
:1002F0004FF0FF310120034B9847F3E74C000020FB
:10030000191C0008C132000800B583B04FF0FF325D
:100310000DF10701074B1868074B984701220DF1B3
:1003200007010648064B98474FF0FF310120054B67
:100330009847EBE734000020CD2200084C00002055
:10034000D5170008C132000802680E4B1B689A429C
:1003500000D0704700B583B00023019301A90A4B78
:1003600018680A4B9847019B4BB14FF0E0234FF0C0
:100370008052C3F8042DBFF34F8FBFF36F8F03B0CC
:100380005DF804FB4C0000203800002045330008D5
:1003900002680E4B1B689A4200D0704700B583B0CC
:1003A0000023019301A90A4B18680A4B9847019B47
:1003B0004BB14FF0E0234FF08052C3F8042DBFF350
:1003C0004F8FBFF36F8F03B05DF804FB4C0000202C
:1003D0002C0000204533000830B583B00F4B01934B
:1003E00003250095002380220D490E480E4CA0479E
:1003F0000E4B01930095002380220D490D48A04724
:100400000022012180200C4B98470C4B18600120E2
:100410000B4B98470B4B186003B030BD38000020E1
:10042000E840000809030008892A00082C00002081
:10043000F8400008E1020008A91F0008340000206D
:10044000D52100083000002010B582B08DF80700DB
:1004500000234FF0FF320DF1070103480068034C01
:10046000A04702B010BD00BF3400002001200008EA
:1004700038B50446074D4FF0FF312868064B9847C2
:100480002046064B984700231A4619462868044C14
:10049000A04738BD300000205D2400084904000852
:1004A0000120000870B506460C4B984705464FF0F2
:1004B000FF310B4B18680B4B9847002403E0305D6D
:1004C000094B98470134AC42F9DB00231A46194620
:1004D00003480068054CA04770BD00BF110100082B
:1004E000300000205D2400084904000801200008B5
:1004F00001F00F0141EA0011054BD960DA6842F0C2
:100500004002DA60DA6822F04002DA60704700BF29
:100510000010014070B505460C460909044EB0476D
:1005200021462846B0470220024B984770BD00BFC5
:10053000F1040008F92D000808B51420104CA0475C
:10054000022100200F4B98470220A04728210020BD
:100550000D4CA0470C210020A04706210020A047F9
:1005600002210020A047094C4FF0FF322146084BE2
:100570001868084B984761782078034B9847F2E752
:10058000F92D0008F10400081505000840000020BE
:100590003C000020CD22000830B583B00024019437
:1005A000032300932346802206490748074DA847A6
:1005B000224602218020064B9847064B186003B064
:1005C00030BD00BF0841000839050008892A00082D
:1005D000A91F00083C00002010B50B460549087013
:1005E0004B7000234FF0FF3203480068034CA047D4
:1005F00010BD00BF400000203C000020012000088A
:10060000FEE7FEE7FEE7FEE7FEE7704708B50248B3
:10061000024B984708BD00BF94000020F90600086F
:1006200008B50248024B984708BD00BF4C000020A7
:100630003919000800B583B0114B9A6942F00102E4
:100640009A619A6902F001020092009ADA6942F016
:100650008052DA61DB6903F080530193019B002231
:100660000F216FF00100074B9847074A536823F0AA
:10067000E06343F08063536003B05DF804FB00BFA8
:100680000010024085130008000001407047000080
:1006900090F83D30DBB2012B23D1022380F83D30AE
:1006A0000268D36843F00103D36003680F4A9342A2
:1006B0000CD0B3F1804F09D0A2F59432934205D00B
:1006C0001A6842F001021A60002070479A6802F02E
:1006D0000702062A07D01A6842F001021A600020B9
:1006E0007047012070470020704700BF002C014078
:1006F000704770477047704710B5044603681A6921
:1007000012F0020F11D0DA6812F0020F0DD06FF064
:1007100002021A610123037703689B6913F0030F38
:1007200070D0544B98470023237723681A6912F03E
:10073000040F12D0DA6812F0040F0ED06FF004022A
:100740001A610223237723689B6913F4407F5FD0EB
:100750002046484B98470023237723681A6912F0F4
:10076000080F12D0DA6812F0080F0ED06FF00802EE
:100770001A61042323772368DB6913F0030F4ED03B
:1007800020463C4B98470023237723681A6912F0D0
:10079000100F12D0DA6812F0100F0ED06FF01002A6
:1007A0001A61082323772368DB6913F4407F3DD067
:1007B0002046304B98470023237723681A6912F0AC
:1007C000010F03D0DA6812F0010F36D123681A69DD
:1007D00012F0800F03D0DA6812F0800F34D1236852
:1007E0001A6912F0400F03D0DA6812F0400F32D1CC
:1007F00023681A6912F0200F03D0DA6812F0200F74
:1008000030D110BD1C4B984720461C4B98478AE7B7
:100810002046194B98472046184B98479BE720469F
:10082000154B98472046154B9847ACE72046124B8E
:1008300098472046114B9847BDE76FF001021A61B7
:1008400020460F4B9847C1E76FF080021A6120469F
:100850000C4B9847C3E76FF040021A6120460A4BE1
:100860009847C5E76FF020021A612046074B98476A
:10087000C7E700BFF3060008F1060008F506000808
:100880006101000857090008F7060008550900082B
:100890000368174A904206D0B0F1804F03D0A2F50A
:1008A0009432904203D123F070034A681343104AF4
:1008B000904206D0B0F1804F03D0A2F5943290421E
:1008C00003D123F44073CA68134323F080034A69B9
:1008D000134303608B68C3620B688362044B9842C6
:1008E00002D00123436170470B690363F9E700BF3E
:1008F000002C014040B310B5044690F83D30F3B1F0
:10090000022384F83D30214651F8040B0F4B9847E1
:10091000012384F8463084F83E3084F83F3084F870
:10092000403084F8413084F8423084F8433084F811
:10093000443084F8453084F83D30002010BD80F804
:100940003C30034B9847DBE70120704791080008D3
:100950008D0600087047704708B5074A136843F0D2
:10096000100313600320054B98470F20044B984752
:10097000044B9847002008BD002002406113000886
:100980008515000835060008034A1168034B1B78DB
:100990000B441360704700BF44000020000000209B
:1009A000014B1868704700BF4400002082B0084B1C
:1009B0001B68084AA2FB03235B0A00FB03F30193B5
:1009C00000BF019B5A1E0192002BF9D102B0704763
:1009D00008000020D34D6210002800F0F58170B5AA
:1009E00082B00446036813F0010F2CD08F4B5B6874
:1009F00003F00C03042B1DD08C4B5B6803F00C033D
:100A0000082B12D06368B3F5803F41D0002B55D13D
:100A100003F1804303F504331A6822F480321A602C
:100A20001A6822F480221A6037E0804B5B6813F466
:100A3000803FE7D07D4B1B6813F4003F03D0636811
:100A4000002B00F0C381236813F0020F75D0774BA1
:100A50005B6813F00C0F5FD0744B5B6803F00C0302
:100A6000082B54D02369002B00F08A80704B0122A0
:100A70001A60704B984705466C4B1B6813F0020FC9
:100A800075D16C4B9847401B0228F5D90320A2E191
:100A9000664A136843F480331360636843B3654B5D
:100AA00098470546614B1B6813F4003FCBD1614B5F
:100AB0009847401B6428F5D903208CE1B3F5A02F9B
:100AC00009D05A4B1A6822F480321A601A6822F44C
:100AD00080221A60E1E703F18043A3F53C331A68F2
:100AE00042F480221A601A6842F480321A60D4E715
:100AF000504B984705464D4B1B6813F4003FA2D05E
:100B00004C4B9847401B6428F5D9032063E1474BC1
:100B10005B6813F4803FA5D1444B1B6813F0020FB0
:100B200003D02369012B40F05381404A136823F01E
:100B3000F803616943EAC1031360236813F0080FE7
:100B400033D0A369002B5CD0394B0122C3F8802439
:100B5000384B98470546354B5B6A13F0020F21D19D
:100B6000344B9847401B0228F5D9032033E12F4A24
:100B7000136823F0F803616943EAC1031360DCE7FB
:100B80002B4B00221A602B4B98470546274B1B68BE
:100B900013F0020FD1D0274B9847401B0228F5D9FC
:100BA000032018E10120244B9847236813F0040F19
:100BB00000F09A801D4BDB6913F0805F34D11B4B32
:100BC000DA6942F08052DA61DB6903F08053019305
:100BD000019B0125194B1B6813F4807F30D0E3681B
:100BE000012B41D0002B57D103F1804303F504338F
:100BF0001A6A22F001021A621A6A22F004021A62C8
:100C000037E00B4B0022C3F880240A4B9847054677
:100C1000064B5B6A13F0020FC7D0064B9847401B88
:100C20000228F5D90320D6E00025D3E700100240C2
:100C300000004242A1090008AD0900080070004010
:100C4000694A136843F480731360684B98470646FB
:100C5000654B1B6813F4807FC1D1644B9847801BA0
:100C60006428F5D90320B6E0614A136A43F0010312
:100C70001362E36833B35D4B984706465C4B1B6ACF
:100C800013F0020F2FD1594B9847801B41F2883344
:100C90009842F3D903209EE0052B09D0544B1A6AE1
:100CA00022F001021A621A6A22F004021A62E0E7D4
:100CB0004F4B1A6A42F004021A621A6A42F00102A9
:100CC0001A62D6E7494B98470646494B1B6A13F010
:100CD000020F08D0454B9847801B41F28833984259
:100CE000F3D9032077E0E5B9E369002B72D0404ADD
:100CF000526802F00C02082A56D0022B17D03D4B46
:100D000000221A66394B98470446394B1B6813F08A
:100D1000007F47D0354B9847001B0228F5D90320A8
:100D200059E0334AD36923F08053D361DCE7314B78
:100D300000221A662D4B984705462D4B1B6813F071
:100D4000007F06D0294B9847401B0228F5D9032085
:100D500041E0236AB3F5803F1AD025494B6823F45C
:100D60007413226A606A024313434B60214B0122D1
:100D70001A661E4B984704461D4B1B6813F0007FF4
:100D80000ED11A4B9847001B0228F5D9032022E008
:100D9000174A536823F40033A1680B435360DCE720
:100DA000002018E0002016E0012B16D0104B5B68E5
:100DB00003F48031226A914211D103F47013626A04
:100DC00093420ED1002006E001207047012002E08E
:100DD000012000E0002002B070BD0120FBE70120EF
:100DE000F9E70120F7E700BF00700040A109000803
:100DF00000100240000042420F4B5B6803F00C02FF
:100E0000082A01D00D487047C3F383420C49885C1F
:100E100013F4803F0BD0084B5B68C3F34043094A8F
:100E2000D35C064A02FB00F0B0FBF3F07047064BC0
:100E300003FB00F0704700BF0010024000127A0070
:100E40000C4100081C41000800093D00002800F08A
:100E5000A08070B50D460446524B1B6803F0070393
:100E60008B420BD24F4A136823F007030B431360E6
:100E7000136803F007038B4240F08D80236813F062
:100E8000020F17D013F0040F04D0474A536843F4FD
:100E9000E0635360236813F0080F04D0424A53689C
:100EA00043F460535360404A536823F0F003A16851
:100EB0000B435360236813F0010F31D06368012B9B
:100EC00020D0022B25D0384A126812F0020F64D0CD
:100ED00035494A6822F0030213434B60334B98476D
:100EE0000646314B5B6803F00C036268B3EB820F7C
:100EF00016D02E4B9847801B41F288339842F0D988
:100F0000032045E0284A126812F4003FE0D1012096
:100F10003EE0254A126812F0007FD9D1012037E067
:100F2000204B1B6803F00703AB420AD91D4A136824
:100F300023F007032B431360136803F00703AB424E
:100F40002DD1236813F0040F06D0174A536823F4F9
:100F5000E063E1680B435360236813F0080F07D088
:100F6000114A536823F46053216943EAC103536073
:100F70000F4B98470C4B5B68C3F303130D4AD35CCC
:100F8000D8400D4B18600D4B18680D4B984700204A
:100F900070BD012070470120FAE70120F8E7012029
:100FA000F6E700BF0020024000100240A10900083F
:100FB000F90D00082041000808000020040000206E
:100FC00085150008014B1868704700BF0800002015
:100FD00008B5054B9847054B5B68C3F30223044AE9
:100FE000D35CD84008BD00BFC50F00080010024008
:100FF0003041000808B5054B9847054B5B68C3F3C3
:10100000C223044AD35CD84008BD00BFC50F000806
:1010100000100240304100080F2303600B4B5A6858
:1010200002F0030242605A6802F0F00282605A68DD
:1010300002F4E062C2605B68DB0803F4E063036112
:10104000034B1B6803F007030B607047001002405E
:101050000020024070B582B00024A4468BE07F4D92
:10106000AA4210D007D97E4DAA420CD005F5803592
:10107000AA4208D015E0A5F58015AA4203D005F5CF
:101080007025AA4209D18A68002A00F0BF80012A8F
:1010900000F0B7804361082403E0A5F58015AA425B
:1010A000F1D0BEF1FF0F00F2B3800646BEF1FF0F94
:1010B00000F2B0804FEA8C0233680F25954023EA96
:1010C000050304FA02F2134333604B6813F0805FA8
:1010D0004FD0644B9A6942F001029A619B6903F018
:1010E00001030193019B4FEA9C02951C5E4B53F850
:1010F00025600CF003039D000F23AB4026EA030696
:101100005A4B984200F08C8003F58063984200F0BF
:10111000898003F58063984200F080800323AB4010
:1011200033430232504D45F822304B6813F4801F90
:101130007AD04F4A936843EA0E0393604B6813F4E6
:10114000001F77D04A4AD36843EA0E03D3604B6846
:1011500013F4003F74D0464A536843EA0E035360C9
:101160004B6813F4803F71D0414A136843EA0E0381
:1011700013600CF1010C0A6832FA0CF36CD00123F5
:1011800003FA0CF302EA030E33EA0202F1D14A68D1
:10119000122A3FF664AF122A83D801A555F822F02F
:1011A00087100008ED110008F71100080912000867
:1011B000A3100008A3100008A3100008A310000843
:1011C000A3100008A3100008A3100008A310000833
:1011D000A3100008A3100008A3100008A310000823
:1011E000A3100008F1110008FD110008CC6858E7B1
:1011F000CC68043455E7CC68083452E7CC680C342A
:101200004FE7036108244CE700244AE7042448E739
:10121000061D4BE7ACF1080292004DE702237EE782
:1012200000237CE701237AE7114A936823EA0E033F
:10123000936083E70E4AD36823EA0E03D36086E700
:101240000B4A536823EA0E03536089E7084A136880
:1012500023EA0E0313608CE702B070BD0000221079
:101260000000311000100240000001400008014061
:10127000000401400AB1016170470904016170472F
:1012800090F82130DBB2022B06D0042383630023C5
:1012900080F82030012070470268136823F00E03A5
:1012A00013600268136823F001031360036CC16BC1
:1012B000012202FA03F34B6080F82120002380F81A
:1012C000203018467047000008B590F82130DBB296
:1012D000022B03D004238363012008BD0268136836
:1012E00023F00E0313600268136823F001031360F8
:1012F0000368194A934214D0143293421FD0143217
:1013000093421ED0143293421ED0143293421ED008
:101310001432934202D04FF0807203E04FF48012F7
:1013200000E001220D4B5A60012380F82130002398
:1013300080F82030436B6BB198470020CDE7102236
:10134000F0E74FF48072EDE74FF48052EAE74FF494
:101350008032E7E70020C0E70800024000000240BA
:10136000074AD36823F4E0631B041B0C000200F45B
:10137000E060034343F0BF6343F40033D36070473E
:1013800000ED00E000B5194BDB68C3F30223C3F1A5
:10139000070CBCF1040F28BF4FF0040C03F1040E3E
:1013A000BEF1060F18D9033B4FF0FF3E0EFA0CFCBE
:1013B00021EA0C0199400EFA03F322EA03031943D0
:1013C00000280BDB0901C9B200F1604000F5614063
:1013D00080F800135DF804FB0023E5E700F00F0040
:1013E0000901C9B2024B1954F4E700BF00ED00E057
:1013F00014ED00E0002807DB00F01F024009012384
:101400009340024A42F82030704700BF00E100E0FC
:101410007047000010B586B0002202920392049239
:101420000592124B996941F010019961996901F097
:10143000100100910099996941F0040199619B693B
:1014400003F004030193019B094C7F212046094BC3
:1014500098477F2302930123039304930223059368
:1014600002A92046044B984706B010BD0010024068
:1014700000100140751200085510000808B5012041
:10148000014B9847FBE700BF613A000808B5044AE2
:1014900000210448044B9847044B186008BD00BF66
:1014A000444100087D1400086D3900084800002000
:1014B00008B50B480B4B03604FF4165343604FF4D1
:1014C000805383600023C36003610C224261836107
:1014D000C361054B984700B908BD044B9847FBE72B
:1014E0004C000020003801406D1700087D01000805
:1014F00070B586B0002302930393049305930268AA
:101500001B4B9A4201D006B070BD03F558439A694F
:1015100042F480429A619A6902F480420092009AF1
:101520009A6942F004029A619B6903F004030193F3
:10153000019B4FF40073029302230393032305934B
:101540000C4E02A930460C4DA8474FF4806302931D
:1015500000240394049402A93046A847224605219A
:101560002520064B98472520054B9847CBE700BF21
:10157000003801400008014055100008851300089C
:10158000F513000800B589B0014600221920174B59
:1015900098471920164B9847164B9A6942F40062F7
:1015A0009A619B6903F400630193019B02A903A85C
:1015B000114B9847114B9847114BA3FB00239B0CF1
:1015C000013B1048104A026040F2E732C2604360BB
:1015D0000023036183600D4B984718B1012009B0C7
:1015E0005DF804FB07480A4B9847F8E785130008A5
:1015F000F51300080010024019100008F50F00084C
:1016000083DE1B4394000020002C0140F5080008F5
:1016100091060008026802F10C0353E8003F23F42E
:1016200090730C3242E800310029F3D1026802F1D4
:10163000140353E8003F23F00103143242E8003161
:101640000029F3D1036B012B05D0202380F8423011
:10165000002303637047026802F10C0353E8003F64
:1016600023F010030C3242E800310029F3D1ECE7FB
:1016700090F84130DBB2212B01D002207047836803
:10168000B3F5805F17D0036A5A1C02621A780368A8
:101690005A60C38C9BB2013B9BB2C3844BB90268B6
:1016A000D36823F08003D3600268D36843F040031B
:1016B000D360002070470369002BE4D1036A1B88C4
:1016C0000268C3F308035360036A02330362E0E76E
:1016D00010B504460268136923F44053C1680B43F4
:1016E000136183680269134342691A430168CB6836
:1016F00023F4B05323F00C031343CB600268536907
:1017000023F4407381690B4353610268134B9A427F
:1017100020D0134B9847024602EB820202EB820272
:1017200063689B00B2FBF3F20E48A0FB023149094B
:10173000642303FB11231B013233A0FB03235B094A
:1017400003F0F00202EB011203F00F0321681344CF
:101750008B6010BD044B98470246DDE7003801401E
:10176000D10F00081F85EB51F50F000860B310B5CD
:10177000044690F8413013B3242384F841302268A2
:10178000D36823F40053D3602046104B9847226857
:10179000136923F4904313612268536923F02A03E9
:1017A00053612268D36843F40053D360002060641F
:1017B000202384F8413084F84230606310BD80F803
:1017C0004030034B9847D7E701207047D1160008F7
:1017D000F114000890F84130DBB2202B10D189B110
:1017E00092B101628284C28400234364212280F882
:1017F00041200168CA6842F08002CA6018467047FA
:1018000002207047012070470120704708B5016829
:10181000CA6822F04002CA60202280F84120024BB0
:101820009847002008BD00BF49030008704700002A
:1018300008B5406A0023C385C384014B984708BD9F
:101840002D1800087047000090F84230DBB2222BC0
:1018500069D18368B3F5805F4FD0826AB3F5805F4A
:1018600004D0002B56D10369002B53D103685B6869
:101870001370836A01338362C38D9BB2013B9BB2B9
:10188000C385002B51D100B583B00268D36823F023
:101890002003D3600268D36823F48073D3600268A6
:1018A000536923F001035361202380F84230002361
:1018B0004363036B012B33D100230363026802F1FE
:1018C0000C0353E8003F23F010030C3242E80031D0
:1018D0000029F3D103681A6812F0100F06D0002215
:1018E00001921A6801925B680193019B818D104BF4
:1018F0009847002003B05DF804FB0269002AACD1D0
:10190000826A03685B68C3F308031380836A023347
:101910008362B1E703685B6803F07F031370A8E795
:10192000044B9847E5E7022070470020704700BF4E
:10193000451800089103000830B583B004460268DA
:101940001368D068516913F00F0505D113F0200F0B
:1019500002D010F0200F19D12DB111F0010119D1D1
:1019600010F4907F16D1216B01297ED013F0800FE7
:1019700003D010F0800F40F0198113F0400F03D016
:1019800010F0400F40F0168103B030BD20468B4B65
:101990009847F9E713F0010F06D010F4807F03D0C9
:1019A000626C42F00102626413F0040F04D019B1BA
:1019B000626C42F00202626413F0020F04D019B1AB
:1019C000626C42F00402626413F0080F07D010F05A
:1019D000200F00D119B1626C42F008026264626C9F
:1019E000002AD1D013F0200F02D010F0200F2AD1FE
:1019F00023685B6903F04003626C12F0080F01D1A9
:101A0000002B2CD020466E4B984723685B6913F05F
:101A1000400F20D0226802F1140353E8003F23F066
:101A20004003143242E800310029F3D1E36B73B173
:101A3000644A5A63E06B644B98470028A4D0E06B7B
:101A4000436B9847A0E720465C4B9847D0E7204679
:101A50005E4B984798E720465C4B984794E72046B2
:101A60005A4B9847002363648EE713F0100F3FF43E
:101A70007DAF10F0100F3FF479AF0023019313688E
:101A8000019353680193019B536913F0400F51D0A8
:101A9000E26B13685B689BB2002B3FF475AFA18DBE
:101AA00099427FF671AFE3859369202B37D0226886
:101AB00002F10C0353E8003F23F480730C3242E838
:101AC00000310029F3D1226802F1140353E8003FEA
:101AD00023F00103143242E800310029F3D12268D7
:101AE00002F1140353E8003F23F04003143242E8AC
:101AF00000310029F3D1202384F8423000232363EE
:101B0000226802F10C0353E8003F23F010030C326B
:101B100042E800310029F3D1E06B2D4B98470223B6
:101B20006363A18DE38D9BB2C91A89B22046294B0C
:101B3000984729E7A18DE38D9BB2C91A89B2E38D3D
:101B40009BB2002B3FF420AF00293FF41DAF226869
:101B500002F10C0353E8003F23F490730C3242E887
:101B600000300028F3D1226802F1140353E8003F4B
:101B700023F00103143242E800300028F3D120237F
:101B800084F8423000232363226802F10C0353E8F7
:101B9000003F23F010030C3242E800300028F3D15C
:101BA0000223636320460B4B9847EDE620460A4B21
:101BB0009847E9E62046094B9847E5E649180008AA
:101BC0001516000831180008C91200082D18000861
:101BD0008112000845180008711600080D18000849
:101BE00081628285C28500234364222380F84230CB
:101BF000036923B10268D36843F48073D360026839
:101C0000536943F0010353610268D36843F0200332
:101C1000D36000207047000008B590F84230DBB276
:101C2000202B08D149B10AB9012008BD0023036364
:101C3000034B9847F9E70220F7E70120F5E700BFDB
:101C4000E11B000800F1080343604FF0FF3282609F
:101C5000C360036100230360704700230361704782
:101C600043684B609A688A605160996008610368B4
:101C700001330360704730B40D68B5F1FF3F11D0F8
:101C800000F108031C465B681A68AA42FAD9636827
:101C90004B6099608C606160086103680133036088
:101CA00030BC70470469F2E70369416882688A6062
:101CB000416851605A68824206D0002202611A6867
:101CC000013A1A601868704782685A60F5E703465F
:101CD000406A18B11B6B1868C0F1380070470000EB
:101CE00010B50446064B9847A26BE36B9A4204D0AA
:101CF0000024044B9847204610BD0124F9E700BF9B
:101D0000C53D0008093E000810B50446054B98473C
:101D1000A36B23B90124044B9847204610BD00242F
:101D2000F9E700BFC53D0008093E000870B504464C
:101D30001546866B026C5AB903681BB10020013648
:101D4000A66370BD4068174B984700236360F6E7B1
:101D50006DB98068144B9847226CA3681344A36044
:101D60006268934219D32368A3602846E7E7C068F6
:101D70000D4B9847226C5142E3689B1AE36022683E
:101D8000934202D263680B44E360022D01D000202D
:101D9000D5E726B1013E0020D1E72846CFE7002055
:101DA000CDE700BF653100088540000808B503464F
:101DB000026C62B10846D9681144D960D3F804C0F6
:101DC000614501D31968D960D968014B984708BDAE
:101DD0008540000838B505461A4B984795F84540A8
:101DE00064B201E0013C64B2002C0ADD6B6A43B1CD
:101DF00005F12400144B98470028F3D0134B984763
:101E0000F0E7FF2385F84530114B98470D4B984775
:101E100095F8444064B201E0013C64B2002C0ADD54
:101E20002B6943B105F11000074B98470028F3D008
:101E3000064B9847F0E7FF2385F84430044B98475A
:101E400038BD00BFC53D00085D2F0008993000086F
:101E5000093E000838B5E0B10D4604461E4B9847D0
:101E60002368E26B216C01FB023060600020A063FC
:101E7000A360013A02FB0133E360FF2384F844309E
:101E800084F84530FDB9236963B9144B98470120A4
:101E900038BD4FF0500383F31188BFF36F8FBFF34A
:101EA0004F8FFEE704F110000D4B98470028ECD04F
:101EB0004FF0E0234FF08052C3F8042DBFF34F8F53
:101EC000BFF36F8FE1E704F11000064DA84704F15E
:101ED0002400A847D9E700BFC53D0008093E000817
:101EE0005D2F0008451C000838B51D46049C0B46B4
:101EF00049B92460E063236401212046034B9847DD
:101F000084F84C5038BD2260F4E700BF551E00082D
:101F100040B94FF0500383F31188BFF36F8FBFF3C5
:101F20004F8FFEE730B585B01C46844653B192B161
:101F300089B94FF0500383F31188BFF36F8FBFF35C
:101F40004F8FFEE74FF0500383F31188BFF36F8F7D
:101F5000BFF34F8FFEE76AB150230393039B502BCF
:101F600013D04FF0500383F31188BFF36F8FBFF38B
:101F70004F8FFEE70029EFD04FF0500383F3118815
:101F8000BFF36F8FBFF34F8FFEE7012384F8463016
:101F900000949DF820306046024DA847204605B0C9
:101FA00030BD00BFE91E000840B94FF0500383F375
:101FB0001188BFF36F8FBFF34F8FFEE7F0B583B08B
:101FC0000C4615460746A1B101FB00F050300A4B04
:101FD0009847064650B1002380F8463000902B46C3
:101FE00000F1500221463846044CA047304603B069
:101FF000F0BD0846EAE700BF9D3B0008E91E000867
:10200000F0B585B0019288B10F461D460446B1B1C6
:10201000022D20D1E36B012B1DD04FF0500383F331
:102020001188BFF36F8FBFF34F8FFEE74FF0500360
:1020300083F31188BFF36F8FBFF34F8FFEE7036CFD
:10204000002BE5D04FF0500383F31188BFF36F8F5F
:10205000BFF34F8FFEE74C4B9847064658B9019B9C
:10206000002B48D04FF0500383F31188BFF36F8FDC
:10207000BFF34F8FFEE700263DE02A463946204653
:10208000424B9847636A7BB948B14FF0E0234FF069
:102090008052C3F8042DBFF34F8FBFF36F8F3C4BBB
:1020A0009847012005B0F0BD04F12400394B984752
:1020B0000028F4D04FF0E0234FF08052C3F8042DF5
:1020C000BFF34F8FBFF36F8FE9E7314B9847002085
:1020D000E8E702A8304B9847012619E0002384F86E
:1020E000443021E0002384F8453023E020462B4B88
:1020F00098472B4B98472B4B9847A26BE36B9A4220
:10210000BBD3022DB9D0019B002BDED0002EE0D036
:102110001F4B9847244B9847224B984794F84420EC
:1021200052B2B2F1FF3FD9D094F8452052B2B2F189
:10213000FF3FD7D0164B984701A902A81B4B9847E1
:10214000D8B920461A4B98470028CFD0019904F1FE
:102150001000184B98472046104B9847104B984753
:102160000028C8D14FF0E0234FF08052C3F8042D6F
:10217000BFF34F8FBFF36F8FBDE72046074B9847E4
:10218000074B984700208DE7A53000082D1D00085B
:10219000093E00085D2F0008F12F0008D51D00083A
:1021A000ED2C0008C53D0008AD2B000809300008E3
:1021B000E11C0008E52E000848B110B5002141607F
:1021C0000160C1600B460A46014CA04710BD704734
:1021D0000120000810B5024600210120034B98475A
:1021E0000446034B9847204610BD00BFA91F0008B6
:1021F000B92100082DE9F84390B10F4616461C4658
:102200000546B1B1022C20D1EB6B012B1DD04FF054
:10221000500383F31188BFF36F8FBFF34F8FFEE737
:102220004FF0500383F31188BFF36F8FBFF34F8FCD
:10223000FEE7036C002BE5D04FF0500383F31188C9
:10224000BFF36F8FBFF34F8FFEE71D4B9847EFF340
:1022500011894FF0500383F31188BFF36F8FBFF3E1
:102260004F8FAA6BEB6B9A4206D3022C04D000204E
:1022700089F31188BDE8F88395F845804FFA88F80E
:102280002246394628460F4B9847B8F1FF3F06D003
:1022900008F101035BB285F845300120E8E76B6A7D
:1022A0000BB90120E4E705F12400074B984718B16A
:1022B00026B101203060DBE70120D9E70120D7E714
:1022C000953F00082D1D00085D2F0008F0B585B072
:1022D000019290B10F460446C1B1544B984706464F
:1022E00000BB019B002B5ED04FF0500383F311889D
:1022F000BFF36F8FBFF34F8FFEE74FF0500383F3B1
:102300001188BFF36F8FBFF34F8FFEE7036C002B75
:10231000E3D04FF0500383F31188BFF36F8FBFF307
:102320004F8FFEE700263EE039462046404B984757
:10233000013DA563236923B93E4B9847012005B0B1
:10234000F0BD04F110003C4B98470028F4D04FF04A
:10235000E0234FF08052C3F8042DBFF34F8FBFF33B
:102360006F8FE9E7334B98470020E8E702A8334B2B
:102370009847012621E0002384F8443029E0002317
:1023800084F845302BE020462D4B98472D4B98473D
:1023900009E020462A4B98472A4B984720462A4B6B
:1023A000984700283FD1294B9847A56B002DBBD1FA
:1023B000019B002BD6D0002ED8D01E4B9847244B23
:1023C0009847224B984794F844305BB2B3F1FF3FF3
:1023D000D1D094F845305BB2B3F1FF3FCFD0154B6D
:1023E000984701A902A81B4B98470028D1D1204645
:1023F000154B98470028C6D0019904F12400164BCC
:10240000984720460E4B98470E4B98470028CAD154
:102410004FF0E0234FF08052C3F8042DBFF34F8FED
:10242000BFF36F8FBFE7002089E700BFA53000082A
:10243000AD1D0008093E00085D2F0008F12F0008BF
:10244000D51D0008ED2C0008091D0008C53D000839
:10245000AD2B000809300008E52E000870B584B0E7
:10246000019158B10446036C8BB14FF0500383F3D4
:102470001188BFF36F8FBFF34F8FFEE74FF050030C
:1024800083F31188BFF36F8FBFF34F8FFEE75D4B70
:102490009847054650B9019B5BB14FF0500383F359
:1024A0001188BFF36F8FBFF34F8FFEE700263546CD
:1024B00055E0064653E0013BA36323683BB1236923
:1024C0004BB9514B98470126304604B070BD4F4B75
:1024D00098476060F3E704F110004D4B98470028DF
:1024E000EFD04FF0E0234FF08052C3F8042DBFF33C
:1024F0004F8FBFF36F8FE4E746B14FF0500383F384
:102500001188BFF36F8FBFF34F8FFEE73E4B9847A5
:10251000DAE702A83F4B984701252AE0002384F818
:10252000443032E0002384F8453034E03A4B984799
:1025300060683A4B98470646334B98473BE0204645
:10254000374B9847374B984709E02046344B98471C
:10255000344B98472046344B9847002842D12E4BA5
:102560009847A36B002BA6D1019B002BC4D0002D54
:10257000CFD0254B98472D4B9847274B984794F839
:1025800044305BB2B3F1FF3FC8D094F845305BB242
:10259000B3F1FF3FC6D01C4B984701A902A8244BBA
:1025A00098470028D1D120461F4B98470028C6D015
:1025B0002368002BBAD0019904F124001D4B9847E1
:1025C0002046174B9847174B98470028C7D14FF024
:1025D000E0234FF08052C3F8042DBFF34F8FBFF3B9
:1025E0006F8FBCE70EB900266EE70B4B984720466D
:1025F000114B984701466068104B9847024B98472B
:10260000F1E700BFA5300008093E0008A532000828
:102610005D2F0008F12F0008C53D0008C5300008F7
:10262000D51D0008ED2C0008091D0008AD2B000881
:1026300009300008E52E0008CF1C0008FD31000815
:102640000023072B0CD8074A52F833200AB1013374
:10265000F7E7044A42F8331002EBC30358607047AF
:10266000704700BFDC00002070B504460D461646DA
:10267000124B984794F844305BB2B3F1FF3F0DD052
:1026800094F845305BB2B3F1FF3F0BD00C4B984749
:10269000A36B5BB120460B4B984770BD002384F8B9
:1026A0004430EDE7002384F84530EFE73246294611
:1026B00004F12400044B9847ECE700BFC53D000837
:1026C000093E0008D51D00081D2F0008084B1B6897
:1026D0001B6823B9074B4FF0FF321A607047044B59
:1026E0001B68DB68DB685A68024B1A60704700BFE2
:1026F00020010020CC0500202DE9F84F80460D4632
:10270000174699460A9EDDF82CA00C9C9200A52144
:10271000206B204B9847236B07F18042013A03EB73
:10272000820727F007074FF0000CBCF10F0F0BD802
:1027300015F80C2004EB0C0383F8342015F80C304A
:1027400013B10CF1010CF0E7002384F84330372E6D
:1027500000D93726E662E66400252565201DDFF8EE
:1027600038B0D84704F11800D8472461C6F13806BC
:10277000A6616462656584F858504A464146384609
:10278000064B98472060BAF1000F01D0CAF800400C
:10279000BDE8F88FA14000085B1C0008793D0008E7
:1027A00070B5002407E004EB840293000C48184441
:1027B0000C4B98470134372CF5D90B4E3046094C59
:1027C000A0470A4D2846A0470948A0470948A04706
:1027D0000948A047094B1E60094B1D6070BD00BF32
:1027E00028010020451C0008A0050020B405002099
:1027F000D405002000060020EC0500202001002068
:102800002401002010B50446234B9847234A13683F
:1028100001331360224B1B685BB1224B1B686BB901
:102820001F4B1B68DA6AE36A9A4207D81C4B1C608C
:1028300004E01B4B1C601368012B29D01A4A136853
:10284000013313606364E06A184B1B68984201D936
:10285000164B186000EB8000211D154B03EB800028
:10286000144B9847144B98470E4B1B687BB10C4B8D
:102870001B68DA6AE36A9A4209D24FF0E0234FF00C
:102880008052C3F8042DBFF34F8FBFF36F8F10BD7D
:102890000A4B9847D2E700BFC53D000888050020D5
:1028A0001C010020E8050020980500209C05002060
:1028B00028010020611C0008093E0008A12700082B
:1028C00038B5044690F8593063B1012B10D0022B73
:1028D0000DD04FF0500383F31188BFF36F8FBFF318
:1028E0004F8FFEE7006B044DA8472046A84738BD30
:1028F000014B9847FBE700BF9D3C00080F4B1B684E
:10290000D3B110B50E4B98470E4BDB68DC68201D29
:102910000D4B98470D4A1368013B1360074A136833
:10292000013B13600A4B984720460A4B9847034BDC
:102930001B68002BE6D110BD704700BF8C0500203E
:10294000C53D000800060020A91C000888050020DD
:10295000093E0008C128000808B5084B9847084BF5
:102960001B68012BF9D94FF0E0234FF08052C3F8D8
:10297000042DBFF34F8FBFF36F8FEEE7FD280008E4
:102980002801002070B504460D46174B1E68174BF2
:1029900018680430164B9847B4F1FF3F0DD034440B
:1029A000124B1B685C60A64210D9124B18680F4B83
:1029B00019680431104B984770BD002DEFD00B4BB8
:1029C000196804310D480E4B9847F5E70D4B186810
:1029D000064B19680431084B98470B4B1B68A34200
:1029E000EAD9094B1C60E7E7140600201C0100200F
:1029F000A91C000824010020771C0008EC05002019
:102A0000611C000820010020CC05002030B587B0F3
:102A10000B9C7CB10C9DB5B15C250495049D5C2D8F
:102A20001AD04FF0500383F31188BFF36F8FBFF3B9
:102A30004F8FFEE74FF0500383F31188BFF36F8F82
:102A4000BFF34F8FFEE74FF0500383F31188BFF3BE
:102A50006F8FBFF34F8FFEE70C9D2C63022485F828
:102A6000594000240394029505AC01940A9C0094FB
:102A7000034CA0470C98034B9847059807B030BD0E
:102A8000F9260008052800082DE9F04385B0054621
:102A90000E46144698469000154A904700B381466A
:102AA0005C20134B98470746B0B1C0F83090E7B1AF
:102AB000002387F85930039302970D9B01930C9BD9
:102AC000009343462246314628460A4CA0473846E2
:102AD000094B9847012005E04846084B9847E6E730
:102AE0004FF0FF3005B0BDE8F0834FF0FF30F9E75D
:102AF0009D3B0008F9260008052800089D3C0008B9
:102B000010B588B000240594069407AA06A905A864
:102B10001C4B9847059B0293069B01930094234608
:102B2000079A194919481A4CA0471A4B186040B126
:102B3000194B9847012806D0B0F1FF3F18D008B0D4
:102B400010BD0020F6E74FF0500383F31188BFF368
:102B50006F8FBFF34F8F114B4FF0FF321A60104B46
:102B600001221A600F4B00221A600F4B9847E6E7CC
:102B70004FF0500383F31188BFF36F8FBFF34F8F74
:102B8000FEE700BFA93A000868410008592900087B
:102B90000D2A0008C80500200D350008CC050020CE
:102BA000E805002014060020DD3E0008024A1368F4
:102BB00001331360704700BF94050020014B186873
:102BC000704700BF14060020F8B53A4B1B68002B75
:102BD00064D1394B1D6801351D60C5B9374B1B6881
:102BE0001B6843B14FF0500383F31188BFF36F8F1D
:102BF000BFF34F8FFEE7314A1168314B1868106000
:102C00001960304A1368013313602F4B98472F4BDC
:102C10001B68AB4238D900272D4B1B68DB6A03EBDE
:102C200083039A002B4B9B58012B3CD901273AE098
:102C30000127224B1B681B6843B3204B1B68DB68D2
:102C4000DC6863689D4226D3261D3046224B984798
:102C5000A36A1BB104F118001F4B9847E36A1F4A8F
:102C60001268934201D91D4A136003EB83039A0053
:102C70003146184810441A4B9847E26A144B1B68B7
:102C8000DB6A9A42D4D2D4E70027D2E70F4B4FF049
:102C9000FF321A60C0E70D4A1360BDE7114A13689E
:102CA000013313600027104B1B6803B1012738461E
:102CB000F8BD00BF9405002014060020200100206C
:102CC00024010020D0050020CD260008CC050020DE
:102CD0001C01002028010020A91C00089C050020E0
:102CE000611C00089005002018060020344B1B686A
:102CF00043B94FF0500383F31188BFF36F8FBFF3D5
:102D00004F8FFEE770B52F4B98472D4B1A68013A4D
:102D10001A601B68002B4ED12B4B1B680BB900248B
:102D20004AE00024294B1B6813B3284BDB68DC689E
:102D300004F11800264EB047251D2846B047E06A2A
:102D4000244B1B68984201D9224B186000EB80008D
:102D50002946214B03EB8000204B9847E26A204B29
:102D60001B68DB6A9A42DDD31E4B01221A60D9E749
:102D70000CB11D4B98471D4B1C6884B9194B1C683E
:102D8000D4B14FF0E0234FF08052C3F8042DBFF3CD
:102D90004F8FBFF36F8F01240EE0013C07D0144B1F
:102DA00098470028F9D00F4B01221A60F5E70F4B26
:102DB00000221A60E2E700240E4B9847204670BDBF
:102DC00094050020C53D000888050020D40500209A
:102DD000A91C00089C05002028010020611C000897
:102DE0001C01002018060020CD26000890050020B8
:102DF000C92B0008093E000810B5A8B10446104BC5
:102E00001B6843B14FF0500383F31188BFF36F8FFA
:102E1000BFF34F8FFEE70B4B9847002120460A4B2C
:102E200098470A4B984748B94FF0E0234FF080523B
:102E3000C3F8042DBFF34F8FBFF36F8F10BD00BFDA
:102E400094050020AD2B000885290008ED2C000812
:102E50001F4B1B681BB11F4B01221A6070471D4B93
:102E600000221A601C4B1B6803EB83018A001B497C
:102E70008A585AB90BB1013BF6E74FF0500383F380
:102E80001188BFF36F8FBFF34F8FFEE703EB830013
:102E900082000A4450684068506003EB830C4FEA9C
:102EA0008C020832114488420BD003EB830291005C
:102EB0000A4A0A445268D168094A1160064A1360F6
:102EC0007047406862469100044A0A445060ECE74B
:102ED00094050020180600209C05002028010020F1
:102EE0001C01002058B110B50C46094A1168183170
:102EF000084B984701212046074B984710BD4FF0DB
:102F0000500383F31188BFF36F8FBFF34F8FFEE73A
:102F10001C010020771C00088529000838B570B115
:102F20000D4614460A4A116818310A4B98470CB1ED
:102F30004FF0FF3521462846074B984738BD4FF0E4
:102F4000500383F31188BFF36F8FBFF34F8FFEE7FA
:102F50001C010020611C00088529000838B5C368E1
:102F6000DC6824B304F118052846194B9847194B1F
:102F70001B682BBB251D2846154B9847E06A164B4E
:102F80001B68984201D9144B186000EB8000294659
:102F9000124B03EB8000124B9847E26A114B1B68FF
:102FA000DB6A9A4211D901200F4B186038BD4FF0EF
:102FB000500383F31188BFF36F8FBFF34F8FFEE78A
:102FC00029460A48064B9847E7E70020EEE700BF8E
:102FD000A91C0008940500209C0500202801002061
:102FE000611C00081C01002018060020D4050020E8
:102FF000034B1B680360034B1B684360704700BFB3
:10300000D005002014060020D8B170B50C46054646
:1030100001B31C4B98471C4B19686B68C81A22688F
:10302000B2F1FF3F27D0194E3668D5F800C0B4453D
:1030300001D08B4224D9824215D800232360012479
:103040001AE04FF0500383F31188BFF36F8FBFF383
:103050004F8FFEE74FF0500383F31188BFF36F8F5C
:10306000BFF34F8FFEE75B1A134423602846084BDB
:103070009847002400E00024064B9847204670BD86
:103080000124F9E7C53D000814060020D005002002
:10309000F12F0008093E0008014B01221A60704719
:1030A00018060020054B1B6833B1054B1B680BB19C
:1030B000002070470220704701207047E80500207B
:1030C0009405002000283FD038B50446C36A204A42
:1030D0001268D26A93422FD28269002A05DB1C4A09
:1030E0001268D26AC2F138028261616903EB83031C
:1030F000184A02EB8303994205D0154B1B68DB6A23
:10310000E362012038BD251D2846134B9847104B1C
:103110001B68D86AE062114B1B68984209D800EB23
:10312000800029460B4B03EB80000D4B9847012094
:10313000E8E70A4B1860F2E7C26C054B1B68DB6AD4
:103140009A4203D30020DDE7002070470120D9E731
:103150001C01002028010020A91C00089C0500205B
:10316000611C000800283BD038B504461E4B1B6884
:10317000834208D04FF0500383F31188BFF36F8F61
:10318000BFF34F8FFEE7036D43B94FF0500383F356
:103190001188BFF36F8FBFF34F8FFEE7013B0365CD
:1031A000C16AC26C91421DD00BB1002038BD051D13
:1031B00028460E4B9847E06CE062C0F13803A361EB
:1031C0000B4B1B68984201D9094B186000EB80003B
:1031D0002946084B03EB8000074B98470120E5E7A1
:1031E000002070470020E1E71C010020A91C000816
:1031F0009C05002028010020611C0008002846D002
:1032000038B50446036D43B94FF0500383F311887A
:10321000BFF36F8FBFF34F8FFEE7C26C8A4200D2BD
:103220000A46E16A914201D0012B00D038BD184B0B
:103230001B68A34222D0E262A369002B02DBC2F129
:103240003802A261626901EB8101124B03EB81013B
:103250008A42EBD1251D28460F4B9847E06A0F4B59
:103260001B68984201D90D4B186000EB800029467D
:10327000084B03EB80000A4B9847D7E74FF0500309
:1032800083F31188BFF36F8FBFF34F8FFEE7704753
:103290001C01002028010020A91C00089C0500201A
:1032A000611C0008054B1B6823B1044B1A68136DA1
:1032B00001331365014B1868704700BF1C010020E3
:1032C00038B504460D461B4B98471B4B1B685B6D7E
:1032D0002BB9194B1B68012283F85820ADB9174B45
:1032E0009847144B9847144B1B685D6D25B1DCB1B2
:1032F000114B1B6800225A650F4B1B68002283F894
:1033000058200E4B9847284638BD114628460C4B8E
:1033100098474FF0E0234FF08052C3F8042DBFF3DD
:103320004F8FBFF36F8FDAE7034B1B686A1E5A6536
:10333000E2E700BFC53D00081C010020093E00086F
:1033400085290008F8B5D8B10D4604462B4B98479F
:10335000EFF311864FF0500383F31188BFF36F8FA3
:10336000BFF34F8F94F85830DBB2022284F8582014
:10337000626D01326265012B0BD086F31188F8BDB6
:103380004FF0500383F31188BFF36F8FBFF34F8F5C
:10339000FEE7A36A43B14FF0500383F31188BFF3F4
:1033A0006F8FBFF34F8FFEE7154B1B68E3B9271DE7
:1033B0003846144B9847E06A134B1B68984201D972
:1033C000114B186000EB80003946104B03EB800076
:1033D0000F4B9847E26A0F4B1B68DB6A9A42CCD9C5
:1033E00045B101232B60C8E704F118010A48084BD6
:1033F0009847EFE7094B01221A60BEE7953F0008A6
:1034000094050020A91C00089C050020280100202C
:10341000611C00081C010020D405002018060020B3
:10342000064B1A681368B3FA83F35B09036013B998
:10343000D368186870470020704700BF1C06002042
:1034400008B54160006191420CD8D21A83699A4252
:1034500001D3012008BD011D094B1868094B98478D
:103460000020F7E79A4201D2994206D2011D064B8D
:103470001868044B98470020ECE70120EAE700BFFA
:1034800020060020771C00081C06002070B582B0C2
:10349000114B9847114B1B681BB1114B984702B059
:1034A00070BD104D2846104EB047104C2046B04716
:1034B0000F4B1D600F4B1C60002300930E4B0F4AF7
:1034C00010210A200E4CA047044B18600028E4D0BD
:1034D0000C490D4B9847E0E7C53D00084007002028
:1034E000093E0008C4060020451C0008D80600203C
:1034F0001C06002020060020F006002024060020E4
:10350000111F0008704100084126000810B588B05E
:10351000134B9847134B1B68CBB1002405940694BA
:1035200007AA06A905A8104B9847059B0293069B7E
:103530000193022300932346079A0C490C480D4C33
:10354000A0470D4B186010B1012008B010BD4FF01E
:10355000500383F31188BFF36F8FBFF34F8FFEE7E4
:103560008D34000840070020C13A00087841000867
:10357000B53800080D2A000844070020B8B19C4661
:1035800003461848006850B310B584B0009101920A
:10359000029305291CDC144B9847022810D0002305
:1035A0001A4669460F480068104CA04715E04FF0D6
:1035B000500383F31188BFF36F8FBFF34F8FFEE784
:1035C0000023069A694607480068084CA04704E0B3
:1035D000002362466946064CA04704B010BD002097
:1035E000704700BF40070020A530000801200008F8
:1035F000F521000870B582B01B4B1B681A68002AC1
:103600002AD0DB681E68DC68251D2846174B9847C2
:10361000636A20469847E369012BEDD1A3693344DF
:103620009E4207D26360246129460F4B1868104BF5
:103630009847E1E7002100910B46324620460D4CA9
:10364000A0470028D8D14FF0500383F31188BFF36F
:103650006F8FBFF34F8FFEE7074A1068024908607B
:10366000136002B070BD00BF1C060020A91C00083A
:10367000771C00087D3500082006002038B5054677
:10368000084B98470446084B1B68834205D8002323
:103690002B60054B1C60204638BD044B9847012326
:1036A0002B60F6E7BD2B0008EC060020F53500087E
:1036B00070B582B005460E46144B1B68DB68DC68AB
:1036C000201D134B9847E369012B04D0636A204601
:1036D000984702B070BDA1692B4632462944204666
:1036E0000C4EB0470028F1D0002100910B462A462D
:1036F0002046094DA8470028E8D14FF0500383F336
:103700001188BFF36F8FBFF34F8FFEE71C060020B9
:10371000A91C0008413400087D35000870B582B04E
:1037200006460C46184B984701A8184B9847019B32
:103730002BBB05460CB9B0421AD22CB1144B1B68F6
:103740001C68B4FA84F464092246711B114B186892
:10375000114B9847114B984798B94FF0E0234FF021
:103760008052C3F8042DBFF34F8FBFF36F8F08E073
:103770000A4B984729463046094B984701E0074BCA
:10378000984702B070BD00BFAD2B00087D36000821
:10379000200600204007002069260008ED2C0008C4
:1037A000B136000830B589B002E0049B002B0FDA77
:1037B000002204A9384B1868384B9847002869D074
:1037C000049B002BF1DA07990698059B9847ECE7D4
:1037D000069C636913B1201D314B984703A8314BF8
:1037E0009847049B092BE3D801A252F823F000BFAD
:1037F000193800081938000819380008B1370008CE
:103800005F380008853800081938000819380008A2
:10381000B13700085F380008059BA16902461944CA
:103820002046214DA8470028C2D0636A2046984709
:10383000E369012BBCD1A269002100910B460598D8
:1038400002442046194CA0470028B1D14FF0500344
:1038500083F31188BFF36F8FBFF34F8FFEE7059996
:10386000A16131B103460246014420460E4CA047F7
:103870009EE74FF0500383F31188BFF36F8FBFF3C0
:103880004F8FFEE794F82C30002B91D12046084B47
:1038900098478DE709B030BD40070020CD220008D1
:1038A000A91C00087D360008413400087D35000859
:1038B0009D3C000800B583B001A8044B98470199CE
:1038C000034B9847034B9847F6E700BF21340008A5
:1038D0001D370008A5370008EFF3058393B9EFF310
:1038E000108393B90C4B1868022804D080B90A4B96
:1038F00001221A607047EFF31183002BF6D06FF0AE
:10390000050070476FF0050070476FF005007047C5
:103910004FF0FF30704700BFA409002008B5EFF357
:103920000583B3B9EFF31083B3B90E4B1B68022BB9
:1039300008D0012B13D10B4B02221A600A4B984777
:10394000002008BDEFF31182002AF2D06FF00500CD
:10395000F7E76FF00500F4E76FF00500F1E74FF0CF
:10396000FF30EEE7A4090020012B0008F0B587B076
:1039700000240494EFF30584002C43D1EFF310836B
:10398000002B3FD1334B1B68022B16D0002839D0B7
:1039900000238DF8173062B3156895B1936903B9A8
:1039A00018235C1E372C51D8546814F0010F4FD1E6
:1039B00056694EB14FEA960C08E0EFF311830BBB4A
:1039C000E4E70DF11705E9E74FF0800C94682CB19E
:1039D000D7685B2F02D9176907B1B6B914B14FF098
:1039E000FF340CE0D46894B914699CB14FF0FF34F3
:1039F00005E0002418234FF0800C0DF11705012C71
:103A00000AD0ACB1049807B0F0BD0124F7E74FF03D
:103A1000FF34F4E70024F2E71469926802920194FB
:103A200000930B46624629460B4CA0470490E9E7F9
:103A300004AA019200930B461FFA8CF22946074C08
:103A4000A0470128DED000230493DBE70020DAE75B
:103A50000020D8E7A40900200D2A0008892A0008C0
:103A600008B5EFF30583A3B9EFF31083A3B90C4BAB
:103A70001B68022B02D040B9002008BDEFF3118370
:103A8000002BF8D06FF00500F7E7064B98470020B1
:103A9000F3E76FF00500F0E76FF00500EDE700BF1A
:103AA000A4090020F92D0008034B0360034B0B60B1
:103AB00080231360704700BF48090020480700209A
:103AC000034B0360034B0B604FF48073136070472C
:103AD000A80D0020A8090020124A12F0070F1ED0DE
:103AE000D11D21F00701C1F5406313440A460E4879
:103AF0000260002141601344083B23F007030B4898
:103B0000036059601960991A51601360084B19607D
:103B1000084B1960084B4FF000421A6070474FF491
:103B20004063E4E7080E0020141A0020040E002071
:103B3000101A00200C1A0020081A0020154B1A46F3
:103B40001B688342FBD3516802EB010C844509D00A
:103B5000416800EB010C634509D00360904218D026
:103B6000106070474068014451601046F0E710B49F
:103B7000094C2468A3420AD05B6819444160136869
:103B80001B680360904200D0106010BC7047046056
:103B9000F8E77047141A0020040E002070B505469F
:103BA000354B9847354B1B68A3B1354B1B681D42FD
:103BB0004AD135B1083515F0070F02D025F00705B9
:103BC0000835002D42D02F4B1B68AB424DD32E4AF7
:103BD000146804E02D4B9847E7E722461C466368CB
:103BE000AB4202D22368002BF7D1244B1B68A342BF
:103BF0003DD0166808362368136063685B1B102B82
:103C000010D9601910F0070F08D04FF0500383F35C
:103C10001188BFF36F8FBFF34F8FFEE7436065607E
:103C20001B4B9847626817490B689B1A0B60194930
:103C300009688B4201D217490B60114B1B68134373
:103C400063600023236002E0002600E00026124BA0
:103C5000984716F0070F0CD04FF0500383F31188EC
:103C6000BFF36F8FBFF34F8FFEE70026EFE700260D
:103C7000EDE7304670BD00BFAD2B0008040E0020FC
:103C8000081A00200C1A0020141A0020D93A000843
:103C90003D3B0008101A0020ED2C0008002830D011
:103CA00038B50446A0F1080550F8043C154A1268DE
:103CB000134208D14FF0500383F31188BFF36F8F85
:103CC000BFF34F8FFEE750F8081C41B14FF050038F
:103CD00083F31188BFF36F8FBFF34F8FFEE723EAA3
:103CE000020340F8043C084B984754F8041C074A68
:103CF00013680B4413602846054B9847054B9847BB
:103D000038BD7047081A0020AD2B00080C1A00209F
:103D10003D3B0008ED2C000882B0002301930D4BC1
:103D20001B68B3F1FF3F08D04FF0500383F31188B5
:103D3000BFF36F8FBFF34F8FFEE74FF0500383F356
:103D40001188BFF36F8FBFF34F8F019B002BFCD007
:103D500002B070470C00002006480068006880F33D
:103D6000088862B661B6BFF34F8FBFF36F8F00DF75
:103D700000BF000008ED00E04FF0807340F8043C05
:103D800021F0010140F8081C034B40F80C3C40F8BE
:103D9000202C4038704700BF193D0008000000008B
:103DA000074B19680868B0E8F00F80F30988BFF383
:103DB0006F8F4FF0000080F311884EF00D0E7047AA
:103DC0001C0100204FF0500383F31188BFF36F8F65
:103DD000BFF34F8F0B4A136801331360012B00D0E0
:103DE00070474FF0E023D3F8043D13F0FF0FF7D0F6
:103DF0004FF0500383F31188BFF36F8FBFF34F8FE2
:103E0000FEE700BF0C000020094B1B6843B94FF0D0
:103E1000500383F31188BFF36F8FBFF34F8FFEE71B
:103E2000013B034A13600BB983F31188704700BF4D
:103E30000C00002000000000000000000000000056
:103E4000EFF30980BFF36F8F0D4B1A6820E9F00F75
:103E500010602DE908404FF0500080F31188FEF704
:103E6000F7FF4FF0000080F31188BDE808401968A3
:103E70000868B0E8F00F80F30988BFF36F8F7047D0
:103E80001C01002008B54FF0500383F31188BFF3E5
:103E90006F8FBFF34F8F064B984728B14FF0E02349
:103EA0004FF08052C3F8042D002383F3118808BD1E
:103EB000C92B00084FF0E022002313619361054BEA
:103EC0001B680549A1FB03139B09013B53610723B1
:103ED0001361704708000020D34D621010B582B006
:103EE000244B1A78D2B20192FF221A701B78DBB2EF
:103EF0008DF803309DF8033003F050031E4A137011
:103F00001E4B07221A6009E01C4A1368013B13602C
:103F10009DF803305B00DBB28DF803309DF8033071
:103F200013F0800FF0D1154A13681B02136003F4DD
:103F3000E0631360019BDBB20E4A13704FF0E02385
:103F4000D3F8202D42F47002C3F8202DD3F8202D91
:103F500042F07042C3F8202D094B98470024094BCA
:103F60001C60094B9847094B9847094B98472046D6
:103F700002B010BD00E400E01C1A0020201A00204E
:103F8000B53E00080C000020593D0008512E0008E5
:103F9000193D0008EFF305830F2B0FD9114A9B5CE5
:103FA000DBB2114A12789A4208D94FF0500383F3DA
:103FB0001188BFF36F8FBFF34F8FFEE74FF0E02301
:103FC000D3F80C3D03F4E063084A1268934208D921
:103FD0004FF0500383F31188BFF36F8FBFF34F8F00
:103FE000FEE77047F0E300E01C1A0020201A0020D2
:103FF000FDF70EFA0B480C490C4A002302E0D45896
:10400000C4500433C4188C42F9D3094A094C002324
:1040100001E013600432A242FBD300F00FF8FCF77A
:10402000E1F87047000000201000002088410008DF
:1040300010000020241A0020FEE7000070B50026C2
:104040000C4D0D4C641BA410A64209D100F030F8B1
:1040500000260A4D0A4C641BA410A64205D170BD6F
:1040600055F8043B98470136EEE755F8043B98476E
:104070000136F2E7804100088041000880410008D5
:10408000844100080A44914200F1FF3300D1704797
:1040900010B511F8014B914203F8014FF9D110BD51
:1040A00003460244934200D1704703F8011BF9E72D
:1040B000F8B500BFF8BC08BC9E467047F8B500BF15
:0840C000F8BC08BC9E467047E5
:1040C80075636B79535242203A290000636875631F
:1040D8006B790000535242005370616D000000007C
:1040E8005472616E736D69742061207461736B0022
:1040F800526563656976652061207461736B0000A1
:104108004C43440002030405060708090A0B0C0D7A
:104118000E0F101001020000000000000000000057
:104128000102030406070809000000000102030455
:1041380064656661756C745461736B00384100087E
:104148000000000000000000000000000000000067
:10415800000200001800000000000000000000003D
:1041680049444C4500000000546D725100000000A5
:08417800546D722053766300C0
:0441800045010008ED
:04418400210100080D
:1041880001000000100000000024F400AAAAAAAA56
:0400000508003FF1BF
:00000001FF
